{
  "contractName": "Oracle",
  "abi": [
    {
      "anonymous": false,
      "inputs": [
        {
          "indexed": false,
          "internalType": "uint256",
          "name": "id",
          "type": "uint256"
        },
        {
          "indexed": false,
          "internalType": "string",
          "name": "urlToQuery",
          "type": "string"
        },
        {
          "indexed": false,
          "internalType": "string",
          "name": "attributeToFetch",
          "type": "string"
        }
      ],
      "name": "NewRequest",
      "type": "event"
    },
    {
      "anonymous": false,
      "inputs": [
        {
          "indexed": false,
          "internalType": "uint256",
          "name": "id",
          "type": "uint256"
        },
        {
          "indexed": false,
          "internalType": "string",
          "name": "urlToQuery",
          "type": "string"
        },
        {
          "indexed": false,
          "internalType": "string",
          "name": "attributeToFetch",
          "type": "string"
        },
        {
          "indexed": false,
          "internalType": "string",
          "name": "agreedValue",
          "type": "string"
        }
      ],
      "name": "UpdatedRequest",
      "type": "event"
    },
    {
      "constant": false,
      "inputs": [
        {
          "internalType": "string",
          "name": "_urlToQuery",
          "type": "string"
        },
        {
          "internalType": "string",
          "name": "_attributeToFetch",
          "type": "string"
        }
      ],
      "name": "createRequest",
      "outputs": [],
      "payable": false,
      "stateMutability": "nonpayable",
      "type": "function"
    },
    {
      "constant": false,
      "inputs": [
        {
          "internalType": "uint256",
          "name": "_id",
          "type": "uint256"
        },
        {
          "internalType": "string",
          "name": "_valueRetrieved",
          "type": "string"
        }
      ],
      "name": "updateRequest",
      "outputs": [],
      "payable": false,
      "stateMutability": "nonpayable",
      "type": "function"
    }
  ],
  "bytecode": "0x60806040526000600155600280556003805534801561001d57600080fd5b50610b048061002d6000396000f3fe608060405234801561001057600080fd5b50600436106100365760003560e01c8063cfb0ac991461003b578063df89f81914610100575b600080fd5b6100fe6004803603604081101561005157600080fd5b81019080803590602001909291908035906020019064010000000081111561007857600080fd5b82018360208201111561008a57600080fd5b803590602001918460018302840111640100000000831117156100ac57600080fd5b91908080601f016020809104026020016040519081016040528093929190818152602001838380828437600081840152601f19601f820116905080830192505050505050509192919290505050610252565b005b6102506004803603604081101561011657600080fd5b810190808035906020019064010000000081111561013357600080fd5b82018360208201111561014557600080fd5b8035906020019184600183028401116401000000008311171561016757600080fd5b91908080601f016020809104026020016040519081016040528093929190818152602001838380828437600081840152601f19601f820116905080830192505050505050509192919290803590602001906401000000008111156101ca57600080fd5b8201836020820111156101dc57600080fd5b803590602001918460018302840111640100000000831117156101fe57600080fd5b91908080601f016020809104026020016040519081016040528093929190818152602001838380828437600081840152601f19601f820116905080830192505050505050509192919290505050610688565b005b600080838154811061026057fe5b9060005260206000209060060201905060018160050160003373ffffffffffffffffffffffffffffffffffffffff1673ffffffffffffffffffffffffffffffffffffffff1681526020019081526020016000205414156106835760028160050160003373ffffffffffffffffffffffffffffffffffffffff1673ffffffffffffffffffffffffffffffffffffffff16815260200190815260200160002081905550600080905060008090505b8061037f576000836004016000848152602001908152602001600020805460018160011615610100020316600290049050141561037257600190508383600401600084815260200190815260200160002090805190602001906103709291906109aa565b505b818060010192505061030c565b600080905060008090505b60035481101561067e5760608560040160008381526020019081526020016000208054600181600116156101000203166002900480601f01602080910402602001604051908101604052809291908181526020018280546001816001161561010002031660029004801561043f5780601f106104145761010080835404028352916020019161043f565b820191906000526020600020905b81548152906001019060200180831161042257829003601f168201915b50505050509050606087905080805190602001208280519060200120141561066f578380600101945050600254841061066e578787600301908051906020019061048a9291906109aa565b507f51f1e1f00d186e79f8ea7c82be079fcdd49fe881904a9cdc1903345eb69d3831876000015488600101896002018a600301604051808581526020018060200180602001806020018481038452878181546001816001161561010002031660029004815260200191508054600181600116156101000203166002900480156105545780601f1061052957610100808354040283529160200191610554565b820191906000526020600020905b81548152906001019060200180831161053757829003601f168201915b50508481038352868181546001816001161561010002031660029004815260200191508054600181600116156101000203166002900480156105d75780601f106105ac576101008083540402835291602001916105d7565b820191906000526020600020905b8154815290600101906020018083116105ba57829003601f168201915b505084810382528581815460018160011615610100020316600290048152602001915080546001816001161561010002031660029004801561065a5780601f1061062f5761010080835404028352916020019161065a565b820191906000526020600020905b81548152906001019060200180831161063d57829003601f168201915b505097505050505050505060405180910390a15b5b5050808060010191505061038a565b505050505b505050565b60008060405180608001604052806001548152602001858152602001848152602001604051806020016040528060008152508152509080600181540180825580915050906001820390600052602060002090600602016000909192909190915060008201518160000155602082015181600101908051906020019061070e929190610a2a565b50604082015181600201908051906020019061072b929190610a2a565b506060820151816003019080519060200190610748929190610a2a565b5050509050600080600183038154811061075e57fe5b906000526020600020906006020190506001816005016000736c2339b46f41a06f09ca0051ddad54d1e582ba7773ffffffffffffffffffffffffffffffffffffffff1673ffffffffffffffffffffffffffffffffffffffff16815260200190815260200160002081905550600181600501600073b5346cf224c02186606e5f89eacc21ec2539807773ffffffffffffffffffffffffffffffffffffffff1673ffffffffffffffffffffffffffffffffffffffff16815260200190815260200160002081905550600181600501600073a2997f1ca363d11a0a35bb1ac0ff7849bc13e91473ffffffffffffffffffffffffffffffffffffffff1673ffffffffffffffffffffffffffffffffffffffff168152602001908152602001600020819055507f0312239616abfb14f7ffa065155abb0ca047274d86c965890db4c8a48b8ce4b66001548585604051808481526020018060200180602001838103835285818151815260200191508051906020019080838360005b838110156108ef5780820151818401526020810190506108d4565b50505050905090810190601f16801561091c5780820380516001836020036101000a031916815260200191505b50838103825284818151815260200191508051906020019080838360005b8381101561095557808201518184015260208101905061093a565b50505050905090810190601f1680156109825780820380516001836020036101000a031916815260200191505b509550505050505060405180910390a160016000815480929190600101919050555050505050565b828054600181600116156101000203166002900490600052602060002090601f016020900481019282601f106109eb57805160ff1916838001178555610a19565b82800160010185558215610a19579182015b82811115610a185782518255916020019190600101906109fd565b5b509050610a269190610aaa565b5090565b828054600181600116156101000203166002900490600052602060002090601f016020900481019282601f10610a6b57805160ff1916838001178555610a99565b82800160010185558215610a99579182015b82811115610a98578251825591602001919060010190610a7d565b5b509050610aa69190610aaa565b5090565b610acc91905b80821115610ac8576000816000905550600101610ab0565b5090565b9056fea265627a7a723158208ebaaf7c052f54af3b8160824630a51feee052fad798d6c5260d02863f2471f764736f6c63430005100032",
  "source": "pragma solidity >=0.4.21 <0.6.0;\n\ncontract Oracle {\n    Request[] requests; //list of requests made to the contract\n    uint currentId = 0; //increasing request id\n    uint minQuorum = 2; //minimum number of responses to receive before declaring final result\n    uint totalOracleCount = 3; // Hardcoded oracle count\n\n    // defines a general api request\n    struct Request {\n        uint id; //request id\n        string urlToQuery; //API url\n        string attributeToFetch; //json attribute (key) to retrieve in the response\n        string agreedValue; //value from key\n        mapping(uint => string) answers; //answers provided by the oracles\n        mapping(address => uint) quorum; //oracles which will query the answer (1=oracle hasn't voted, 2=oracle has voted)\n    }\n\n    //event that triggers oracle outside of the blockchain\n    event NewRequest(uint id, string urlToQuery, string attributeToFetch);\n\n    //triggered when there's a consensus on the final result\n    event UpdatedRequest(\n        uint id,\n        string urlToQuery,\n        string attributeToFetch,\n        string agreedValue\n    );\n\n    function createRequest(\n        string memory _urlToQuery,\n        string memory _attributeToFetch\n    ) public {\n        uint length = requests.push(\n            Request(currentId, _urlToQuery, _attributeToFetch, \"\")\n        );\n        Request storage r = requests[length - 1];\n\n        // Hardcoded oracles address\n        r.quorum[address(0x6c2339b46F41a06f09CA0051ddAD54D1e582bA77)] = 1;\n        r.quorum[address(0xb5346CF224c02186606e5f89EACC21eC25398077)] = 1;\n        r.quorum[address(0xa2997F1CA363D11a0a35bB1Ac0Ff7849bc13e914)] = 1;\n\n        // launch an event to be detected by oracle outside of blockchain\n        emit NewRequest(currentId, _urlToQuery, _attributeToFetch);\n\n        // increase request id\n        currentId++;\n    }\n\n    //called by the oracle to record its answer\n    function updateRequest(uint _id, string memory _valueRetrieved) public {\n        Request storage currRequest = requests[_id];\n\n        //check if oracle is in the list of trusted oracles\n        //and if the oracle hasn't voted yet\n        if (currRequest.quorum[address(msg.sender)] == 1) {\n            //marking that this address has voted\n            currRequest.quorum[msg.sender] = 2;\n\n            //iterate through \"array\" of answers until a position if free and save the retrieved value\n            uint tmpI = 0;\n            bool found = false;\n            while (!found) {\n                //find first empty slot\n                if (bytes(currRequest.answers[tmpI]).length == 0) {\n                    found = true;\n                    currRequest.answers[tmpI] = _valueRetrieved;\n                }\n                tmpI++;\n            }\n\n            uint currentQuorum = 0;\n\n            //iterate through oracle list and check if enough oracles(minimum quorum)\n            //have voted the same answer has the current one\n            for (uint i = 0; i < totalOracleCount; i++) {\n                bytes memory a = bytes(currRequest.answers[i]);\n                bytes memory b = bytes(_valueRetrieved);\n\n                if (keccak256(a) == keccak256(b)) {\n                    currentQuorum++;\n                    if (currentQuorum >= minQuorum) {\n                        currRequest.agreedValue = _valueRetrieved;\n                        emit UpdatedRequest(\n                            currRequest.id,\n                            currRequest.urlToQuery,\n                            currRequest.attributeToFetch,\n                            currRequest.agreedValue\n                        );\n                    }\n                }\n            }\n        }\n    }\n}\n",
  "sourcePath": "/mnt/DATA/dev/smartcontracts/blockchain-oracle/on-chain-oracle/contracts/Oracle.sol",
  "compiler": {
    "name": "solc",
    "version": "0.5.16+commit.9c3226ce.Emscripten.clang"
  },
  "schemaVersion": "3.4.16",
  "updatedAt": "2024-12-08T16:35:10.670Z",
  "devdoc": {
    "methods": {}
  },
  "userdoc": {
    "methods": {}
  }
}